:100000000C9434000C9449000C9449000C94490061
:100010000C9449000C9449000C9449000C9449003C
:100020000C9449000C9449000C9449000C9449002C
:100030000C9449000C9449000C9449000C9449001C
:100040000C9449000C9449000C9449000C9449000C
:100050000C9449000C9449000C9449000C944900FC
:100060000C9449000C94490011241FBECFEFD8E036
:10007000DEBFCDBF11E0A0E0B1E0ECE2F2E002C0F3
:1000800005900D92A831B107D9F70E9470000C9429
:1000900014010C94000085B95E985D9A88E893E19C
:1000A0000197F1F78BB1807C8BB915B8089585B9AC
:1000B0005E9A5D9A88E893E10197F1F78BB1807CB5
:1000C0008BB915B80895CF93DF93EC0103C0219647
:1000D0000E94570088811816D4F3DF91CF910895BC
:1000E000EF92FF920F931F93DF93CF9300D00F9265
:1000F000CDB7DEB78FEF84B911B88AB904ED10E33C
:10010000C8010197F1F780917C00806C80937C009E
:1001100080917A00876A80937A0081E00E944B0088
:10012000C8010197F1F788E30E944B00C8010197CD
:10013000F1F78FE00E944B00C8010197F1F7809121
:100140007A00806480937A007E010894E11CF11C9F
:10015000009178001091790080E091E00E946300A6
:1001600080EC0E944B0088E091E00E94630088ECE4
:100170000E944B00C8019695879596958795B70183
:100180004AE050E00E94CF00C7010E94630081E175
:1001900091E00E94630080E80E944B00D9CFFB01F0
:1001A0009F01E8944230C4F04532B4F44A3029F457
:1001B00097FB1EF4909581959F4F642F77270E949F
:1001C0000001805D8A330CF0895D8193CB0100973B
:1001D000A1F716F45DE251931082C9010C94F0006E
:1001E000DC01FC01672F71917723E1F7329704C09E
:1001F0007C916D9370836291AE17BF07C8F3089529
:10020000AA1BBB1B51E107C0AA1FBB1FA617B7073C
:1002100010F0A61BB70B881F991F5A95A9F7809558
:0C0220009095BC01CD010895F894FFCF2B
:10022C004B4F5553494B410054656D702843293D44
:08023C000020202020202000FA
:00000001FF
